


ARM Macro Assembler    Page 1 


    1 00000000         ;/*!
    2 00000000         ;    \file  startup_gd32f10x_md.s
    3 00000000         ;    \brief start up file
    4 00000000         ;*/
    5 00000000         
    6 00000000         ;/*
    7 00000000         ;    Copyright (C) 2017 GigaDevice
    8 00000000         
    9 00000000         ;    2014-12-26, V1.0.0, firmware for GD32F10x
   10 00000000         ;    2017-06-20, V2.0.0, firmware for GD32F10x
   11 00000000         ;*/
   12 00000000         
   13 00000000         ; <h> Stack Configuration
   14 00000000         ;   <o> Stack Size (in Bytes) <0x0-0xFFFFFFFF:8>
   15 00000000         ; </h>
   16 00000000         
   17 00000000 00000400 
                       Stack_Size
                               EQU              0x00000400
   18 00000000         
   19 00000000                 AREA             STACK, NOINIT, READWRITE, ALIGN
 = 3
   20 00000000         Stack_Mem
                               SPACE            Stack_Size
   21 00000400         __initial_sp
   22 00000400         
   23 00000400         
   24 00000400         ; <h> Heap Configuration
   25 00000400         ;   <o>  Heap Size (in Bytes) <0x0-0xFFFFFFFF:8>
   26 00000400         ; </h>
   27 00000400         
   28 00000400 00000400 
                       Heap_Size
                               EQU              0x00000400
   29 00000400         
   30 00000400                 AREA             HEAP, NOINIT, READWRITE, ALIGN 
= 3
   31 00000000         __heap_base
   32 00000000         Heap_Mem
                               SPACE            Heap_Size
   33 00000400         __heap_limit
   34 00000400         
   35 00000400         
   36 00000400                 PRESERVE8
   37 00000400                 THUMB
   38 00000400         
   39 00000400         ;                   /* reset Vector Mapped to at Address
                        0 */
   40 00000400                 AREA             RESET, DATA, READONLY
   41 00000000                 EXPORT           __Vectors
   42 00000000                 EXPORT           __Vectors_End
   43 00000000                 EXPORT           __Vectors_Size
   44 00000000         
   45 00000000 00000000 
                       __Vectors
                               DCD              __initial_sp ; Top of Stack
   46 00000004 00000000        DCD              Reset_Handler ; Reset Handler
   47 00000008 00000000        DCD              NMI_Handler ; NMI Handler
   48 0000000C 00000000        DCD              HardFault_Handler ; Hard Fault 



ARM Macro Assembler    Page 2 


                                                            Handler
   49 00000010 00000000        DCD              MemManage_Handler 
                                                            ; MPU Fault Handler
                                                            
   50 00000014 00000000        DCD              BusFault_Handler 
                                                            ; Bus Fault Handler
                                                            
   51 00000018 00000000        DCD              UsageFault_Handler ; Usage Faul
                                                            t Handler
   52 0000001C 00000000        DCD              0           ; Reserved
   53 00000020 00000000        DCD              0           ; Reserved
   54 00000024 00000000        DCD              0           ; Reserved
   55 00000028 00000000        DCD              0           ; Reserved
   56 0000002C 00000000        DCD              SVC_Handler ; SVCall Handler
   57 00000030 00000000        DCD              DebugMon_Handler ; Debug Monito
                                                            r Handler
   58 00000034 00000000        DCD              0           ; Reserved
   59 00000038 00000000        DCD              PendSV_Handler ; PendSV Handler
                                                            
   60 0000003C 00000000        DCD              SysTick_Handler 
                                                            ; SysTick Handler
   61 00000040         
   62 00000040         ;                   /* external interrupts handler */
   63 00000040 00000000        DCD              WWDGT_IRQHandler ; 16:Window Wa
                                                            tchdog Timer
   64 00000044 00000000        DCD              LVD_IRQHandler ; 17:LVD through
                                                             EXTI Line detect
   65 00000048 00000000        DCD              TAMPER_IRQHandler ; 18:Tamper I
                                                            nterrupt   
   66 0000004C 00000000        DCD              RTC_IRQHandler ; 19:RTC through
                                                             EXTI Line
   67 00000050 00000000        DCD              FMC_IRQHandler ; 20:FMC
   68 00000054 00000000        DCD              RCU_IRQHandler ; 21:RCU
   69 00000058 00000000        DCD              EXTI0_IRQHandler 
                                                            ; 22:EXTI Line 0
   70 0000005C 00000000        DCD              EXTI1_IRQHandler 
                                                            ; 23:EXTI Line 1
   71 00000060 00000000        DCD              EXTI2_IRQHandler 
                                                            ; 24:EXTI Line 2
   72 00000064 00000000        DCD              EXTI3_IRQHandler 
                                                            ; 25:EXTI Line 3
   73 00000068 00000000        DCD              EXTI4_IRQHandler 
                                                            ; 26:EXTI Line 4
   74 0000006C 00000000        DCD              DMA0_Channel0_IRQHandler 
                                                            ; 27:DMA0 Channel 0
                                                            
   75 00000070 00000000        DCD              DMA0_Channel1_IRQHandler 
                                                            ; 28:DMA0 Channel 1
                                                            
   76 00000074 00000000        DCD              DMA0_Channel2_IRQHandler 
                                                            ; 29:DMA0 Channel 2
                                                            
   77 00000078 00000000        DCD              DMA0_Channel3_IRQHandler 
                                                            ; 30:DMA0 Channel 3
                                                            
   78 0000007C 00000000        DCD              DMA0_Channel4_IRQHandler 
                                                            ; 31:DMA0 Channel 4
                                                            
   79 00000080 00000000        DCD              DMA0_Channel5_IRQHandler ; 32:D



ARM Macro Assembler    Page 3 


                                                            MA0 Channel 5 
   80 00000084 00000000        DCD              DMA0_Channel6_IRQHandler 
                                                            ; 33:DMA0 Channel 6
                                                            
   81 00000088 00000000        DCD              ADC0_1_IRQHandler 
                                                            ; 34:ADC0 and ADC1
   82 0000008C 00000000        DCD              USBD_HP_CAN0_TX_IRQHandler ; 35
                                                            :USBD and CAN0 TX
   83 00000090 00000000        DCD              USBD_LP_CAN0_RX0_IRQHandler ; 3
                                                            6:USBD and CAN0 RX0
                                                            
   84 00000094 00000000        DCD              CAN0_RX1_IRQHandler 
                                                            ; 37:CAN0 RX1
   85 00000098 00000000        DCD              CAN0_EWMC_IRQHandler 
                                                            ; 38:CAN0 EWMC
   86 0000009C 00000000        DCD              EXTI5_9_IRQHandler ; 39:EXTI Li
                                                            ne 5 to EXTI Line 9
                                                            
   87 000000A0 00000000        DCD              TIMER0_BRK_IRQHandler 
                                                            ; 40:TIMER0 Break
   88 000000A4 00000000        DCD              TIMER0_UP_IRQHandler 
                                                            ; 41:TIMER0 Update
   89 000000A8 00000000        DCD              TIMER0_TRG_CMT_IRQHandler 
                                                            ; 42:TIMER0 Trigger
                                                            
   90 000000AC 00000000        DCD              TIMER0_Channel_IRQHandler ; 43:
                                                            TIMER0 Channel Capt
                                                            ure Compare
   91 000000B0 00000000        DCD              TIMER1_IRQHandler ; 44:TIMER1
   92 000000B4 00000000        DCD              TIMER2_IRQHandler ; 45:TIMER2
   93 000000B8 00000000        DCD              TIMER3_IRQHandler ; 46:TIMER3
   94 000000BC 00000000        DCD              I2C0_EV_IRQHandler 
                                                            ; 47:I2C0 Event
   95 000000C0 00000000        DCD              I2C0_ER_IRQHandler 
                                                            ; 48:I2C0 Error
   96 000000C4 00000000        DCD              I2C1_EV_IRQHandler 
                                                            ; 49:I2C1 Event
   97 000000C8 00000000        DCD              I2C1_ER_IRQHandler 
                                                            ; 50:I2C1 Error
   98 000000CC 00000000        DCD              SPI0_IRQHandler ; 51:SPI0
   99 000000D0 00000000        DCD              SPI1_IRQHandler ; 52:SPI1
  100 000000D4 00000000        DCD              USART0_IRQHandler ; 53:USART0
  101 000000D8 00000000        DCD              USART1_IRQHandler ; 54:USART1
  102 000000DC 00000000        DCD              USART2_IRQHandler ; 55:USART2
  103 000000E0 00000000        DCD              EXTI10_15_IRQHandler ; 56:EXTI 
                                                            Line 10 to EXTI Lin
                                                            e 15
  104 000000E4 00000000        DCD              RTC_Alarm_IRQHandler ; 57:RTC A
                                                            larm through EXTI L
                                                            ine
  105 000000E8 00000000        DCD              USBD_WKUP_IRQHandler ; 58:USBD 
                                                            WakeUp from suspend
                                                             through EXTI Line
  106 000000EC 00000000        DCD              0           ; Reserved
  107 000000F0 00000000        DCD              0           ; Reserved
  108 000000F4 00000000        DCD              0           ; Reserved
  109 000000F8 00000000        DCD              0           ; Reserved
  110 000000FC 00000000        DCD              0           ; Reserved
  111 00000100 00000000        DCD              EXMC_IRQHandler ; 64:EXMC



ARM Macro Assembler    Page 4 


  112 00000104         
  113 00000104         __Vectors_End
  114 00000104         
  115 00000104 00000104 
                       __Vectors_Size
                               EQU              __Vectors_End - __Vectors
  116 00000104         
  117 00000104                 AREA             |.text|, CODE, READONLY
  118 00000000         
  119 00000000         ;/* reset Handler */
  120 00000000         Reset_Handler
                               PROC
  121 00000000                 EXPORT           Reset_Handler                  
   [WEAK]
  122 00000000                 IMPORT           __main
  123 00000000                 IMPORT           SystemInit
  124 00000000 4806            LDR              R0, =SystemInit
  125 00000002 4780            BLX              R0
  126 00000004 4806            LDR              R0, =__main
  127 00000006 4700            BX               R0
  128 00000008                 ENDP
  129 00000008         
  130 00000008         ;/* dummy Exception Handlers */
  131 00000008         NMI_Handler
                               PROC
  132 00000008                 EXPORT           NMI_Handler                    
     [WEAK]
  133 00000008 E7FE            B                .
  134 0000000A                 ENDP
  135 0000000A         
  136 0000000A         HardFault_Handler
                               PROC
  137 0000000A                 EXPORT           HardFault_Handler              
     [WEAK]
  138 0000000A E7FE            B                .
  139 0000000C                 ENDP
  140 0000000C         
  141 0000000C         MemManage_Handler
                               PROC
  142 0000000C                 EXPORT           MemManage_Handler              
     [WEAK]
  143 0000000C E7FE            B                .
  144 0000000E                 ENDP
  145 0000000E         
  146 0000000E         BusFault_Handler
                               PROC
  147 0000000E                 EXPORT           BusFault_Handler               
     [WEAK]
  148 0000000E E7FE            B                .
  149 00000010                 ENDP
  150 00000010         
  151 00000010         UsageFault_Handler
                               PROC
  152 00000010                 EXPORT           UsageFault_Handler             
     [WEAK]
  153 00000010 E7FE            B                .
  154 00000012                 ENDP
  155 00000012         
  156 00000012         SVC_Handler



ARM Macro Assembler    Page 5 


                               PROC
  157 00000012                 EXPORT           SVC_Handler                    
     [WEAK]
  158 00000012 E7FE            B                .
  159 00000014                 ENDP
  160 00000014         
  161 00000014         DebugMon_Handler
                               PROC
  162 00000014                 EXPORT           DebugMon_Handler               
     [WEAK]
  163 00000014 E7FE            B                .
  164 00000016                 ENDP
  165 00000016         
  166 00000016         PendSV_Handler
                               PROC
  167 00000016                 EXPORT           PendSV_Handler                 
     [WEAK]
  168 00000016 E7FE            B                .
  169 00000018                 ENDP
  170 00000018         
  171 00000018         SysTick_Handler
                               PROC
  172 00000018                 EXPORT           SysTick_Handler                
     [WEAK]
  173 00000018 E7FE            B                .
  174 0000001A                 ENDP
  175 0000001A         
  176 0000001A         Default_Handler
                               PROC
  177 0000001A         ;                   /* external interrupts handler */   
                        
  178 0000001A                 EXPORT           WWDGT_IRQHandler               
     [WEAK]
  179 0000001A                 EXPORT           LVD_IRQHandler                 
     [WEAK]
  180 0000001A                 EXPORT           TAMPER_IRQHandler              
     [WEAK]
  181 0000001A                 EXPORT           RTC_IRQHandler                 
     [WEAK]
  182 0000001A                 EXPORT           FMC_IRQHandler                 
     [WEAK]
  183 0000001A                 EXPORT           RCU_IRQHandler                 
     [WEAK]
  184 0000001A                 EXPORT           EXTI0_IRQHandler               
     [WEAK]
  185 0000001A                 EXPORT           EXTI1_IRQHandler               
     [WEAK]
  186 0000001A                 EXPORT           EXTI2_IRQHandler               
     [WEAK]
  187 0000001A                 EXPORT           EXTI3_IRQHandler               
     [WEAK]
  188 0000001A                 EXPORT           EXTI4_IRQHandler               
     [WEAK]
  189 0000001A                 EXPORT           DMA0_Channel0_IRQHandler       
     [WEAK]
  190 0000001A                 EXPORT           DMA0_Channel1_IRQHandler       
     [WEAK]
  191 0000001A                 EXPORT           DMA0_Channel2_IRQHandler       
     [WEAK]



ARM Macro Assembler    Page 6 


  192 0000001A                 EXPORT           DMA0_Channel3_IRQHandler       
     [WEAK]
  193 0000001A                 EXPORT           DMA0_Channel4_IRQHandler       
     [WEAK]
  194 0000001A                 EXPORT           DMA0_Channel5_IRQHandler       
     [WEAK]
  195 0000001A                 EXPORT           DMA0_Channel6_IRQHandler       
     [WEAK]
  196 0000001A                 EXPORT           ADC0_1_IRQHandler              
     [WEAK]
  197 0000001A                 EXPORT           USBD_HP_CAN0_TX_IRQHandler     
     [WEAK]
  198 0000001A                 EXPORT           USBD_LP_CAN0_RX0_IRQHandler    
     [WEAK]
  199 0000001A                 EXPORT           CAN0_RX1_IRQHandler            
     [WEAK]
  200 0000001A                 EXPORT           CAN0_EWMC_IRQHandler           
     [WEAK]
  201 0000001A                 EXPORT           EXTI5_9_IRQHandler             
     [WEAK]
  202 0000001A                 EXPORT           TIMER0_BRK_IRQHandler          
     [WEAK]
  203 0000001A                 EXPORT           TIMER0_UP_IRQHandler           
     [WEAK]
  204 0000001A                 EXPORT           TIMER0_TRG_CMT_IRQHandler      
     [WEAK]
  205 0000001A                 EXPORT           TIMER0_Channel_IRQHandler      
     [WEAK]
  206 0000001A                 EXPORT           TIMER1_IRQHandler              
     [WEAK]
  207 0000001A                 EXPORT           TIMER2_IRQHandler              
     [WEAK]
  208 0000001A                 EXPORT           TIMER3_IRQHandler              
     [WEAK]
  209 0000001A                 EXPORT           I2C0_EV_IRQHandler             
     [WEAK]
  210 0000001A                 EXPORT           I2C0_ER_IRQHandler             
     [WEAK]
  211 0000001A                 EXPORT           I2C1_EV_IRQHandler             
     [WEAK]
  212 0000001A                 EXPORT           I2C1_ER_IRQHandler             
     [WEAK]
  213 0000001A                 EXPORT           SPI0_IRQHandler                
     [WEAK]
  214 0000001A                 EXPORT           SPI1_IRQHandler                
     [WEAK]
  215 0000001A                 EXPORT           USART0_IRQHandler              
     [WEAK]
  216 0000001A                 EXPORT           USART1_IRQHandler              
     [WEAK]
  217 0000001A                 EXPORT           USART2_IRQHandler              
     [WEAK]
  218 0000001A                 EXPORT           EXTI10_15_IRQHandler           
     [WEAK]
  219 0000001A                 EXPORT           RTC_Alarm_IRQHandler           
     [WEAK]
  220 0000001A                 EXPORT           USBD_WKUP_IRQHandler           
     [WEAK]
  221 0000001A                 EXPORT           EXMC_IRQHandler                



ARM Macro Assembler    Page 7 


     [WEAK]
  222 0000001A         
  223 0000001A         
  224 0000001A         ;/* external interrupts handler */
  225 0000001A         WWDGT_IRQHandler
  226 0000001A         LVD_IRQHandler
  227 0000001A         TAMPER_IRQHandler
  228 0000001A         RTC_IRQHandler
  229 0000001A         FMC_IRQHandler
  230 0000001A         RCU_IRQHandler
  231 0000001A         EXTI0_IRQHandler
  232 0000001A         EXTI1_IRQHandler
  233 0000001A         EXTI2_IRQHandler
  234 0000001A         EXTI3_IRQHandler
  235 0000001A         EXTI4_IRQHandler
  236 0000001A         DMA0_Channel0_IRQHandler
  237 0000001A         DMA0_Channel1_IRQHandler
  238 0000001A         DMA0_Channel2_IRQHandler
  239 0000001A         DMA0_Channel3_IRQHandler
  240 0000001A         DMA0_Channel4_IRQHandler
  241 0000001A         DMA0_Channel5_IRQHandler
  242 0000001A         DMA0_Channel6_IRQHandler
  243 0000001A         ADC0_1_IRQHandler
  244 0000001A         USBD_HP_CAN0_TX_IRQHandler
  245 0000001A         USBD_LP_CAN0_RX0_IRQHandler
  246 0000001A         CAN0_RX1_IRQHandler
  247 0000001A         CAN0_EWMC_IRQHandler
  248 0000001A         EXTI5_9_IRQHandler
  249 0000001A         TIMER0_BRK_IRQHandler
  250 0000001A         TIMER0_UP_IRQHandler
  251 0000001A         TIMER0_TRG_CMT_IRQHandler
  252 0000001A         TIMER0_Channel_IRQHandler
  253 0000001A         TIMER1_IRQHandler
  254 0000001A         TIMER2_IRQHandler
  255 0000001A         TIMER3_IRQHandler
  256 0000001A         I2C0_EV_IRQHandler
  257 0000001A         I2C0_ER_IRQHandler
  258 0000001A         I2C1_EV_IRQHandler
  259 0000001A         I2C1_ER_IRQHandler
  260 0000001A         SPI0_IRQHandler
  261 0000001A         SPI1_IRQHandler
  262 0000001A         USART0_IRQHandler
  263 0000001A         USART1_IRQHandler
  264 0000001A         USART2_IRQHandler
  265 0000001A         EXTI10_15_IRQHandler
  266 0000001A         RTC_Alarm_IRQHandler
  267 0000001A         USBD_WKUP_IRQHandler
  268 0000001A         EXMC_IRQHandler
  269 0000001A         
  270 0000001A         
  271 0000001A         
  272 0000001A E7FE            B                .
  273 0000001C                 ENDP
  274 0000001C         
  275 0000001C                 ALIGN
  276 0000001C         
  277 0000001C         ; user Initial Stack & Heap
  278 0000001C         
  279 0000001C                 IF               :DEF:__MICROLIB



ARM Macro Assembler    Page 8 


  280 0000001C         
  281 0000001C                 EXPORT           __initial_sp
  282 0000001C                 EXPORT           __heap_base
  283 0000001C                 EXPORT           __heap_limit
  284 0000001C         
  285 0000001C                 ELSE
  300                          ENDIF
  301 0000001C         
  302 0000001C                 END
              00000000 
              00000000 
Command Line: --debug --xref --diag_suppress=9931 --cpu=Cortex-M3 --apcs=interw
ork --depend=.\objects\startup_gd32f10x_md.d -o.\objects\startup_gd32f10x_md.o 
-I.\RTE\_GD32_Template -ID:\Keil_v5\GigaDevice\GD32F10x_DFP\2.0.1\Device\Includ
e -ID:\Keil_v5\ARM\CMSIS\Include -ID:\Keil_v5\GigaDevice\GD32F10x_DFP\2.0.1\Dev
ice\GD32F10x\Include --predefine="__MICROLIB SETA 1" --predefine="__UVISION_VER
SION SETA 530" --predefine="GD32F10X_MD SETA 1" --predefine="USE_STDPERIPH_DRIV
ER SETA 1" --predefine="_RTE_ SETA 1" --list=.\listings\startup_gd32f10x_md.lst
 Firmware\CMSIS\GD\GD32F10x\Source\ARM\startup_gd32f10x_md.s



ARM Macro Assembler    Page 1 Alphabetic symbol ordering
Relocatable symbols

STACK 00000000

Symbol: STACK
   Definitions
      At line 19 in file Firmware\CMSIS\GD\GD32F10x\Source\ARM\startup_gd32f10x
_md.s
   Uses
      None
Comment: STACK unused
Stack_Mem 00000000

Symbol: Stack_Mem
   Definitions
      At line 20 in file Firmware\CMSIS\GD\GD32F10x\Source\ARM\startup_gd32f10x
_md.s
   Uses
      None
Comment: Stack_Mem unused
__initial_sp 00000400

Symbol: __initial_sp
   Definitions
      At line 21 in file Firmware\CMSIS\GD\GD32F10x\Source\ARM\startup_gd32f10x
_md.s
   Uses
      At line 45 in file Firmware\CMSIS\GD\GD32F10x\Source\ARM\startup_gd32f10x
_md.s
      At line 281 in file Firmware\CMSIS\GD\GD32F10x\Source\ARM\startup_gd32f10
x_md.s

3 symbols



ARM Macro Assembler    Page 1 Alphabetic symbol ordering
Relocatable symbols

HEAP 00000000

Symbol: HEAP
   Definitions
      At line 30 in file Firmware\CMSIS\GD\GD32F10x\Source\ARM\startup_gd32f10x
_md.s
   Uses
      None
Comment: HEAP unused
Heap_Mem 00000000

Symbol: Heap_Mem
   Definitions
      At line 32 in file Firmware\CMSIS\GD\GD32F10x\Source\ARM\startup_gd32f10x
_md.s
   Uses
      None
Comment: Heap_Mem unused
__heap_base 00000000

Symbol: __heap_base
   Definitions
      At line 31 in file Firmware\CMSIS\GD\GD32F10x\Source\ARM\startup_gd32f10x
_md.s
   Uses
      At line 282 in file Firmware\CMSIS\GD\GD32F10x\Source\ARM\startup_gd32f10
x_md.s
Comment: __heap_base used once
__heap_limit 00000400

Symbol: __heap_limit
   Definitions
      At line 33 in file Firmware\CMSIS\GD\GD32F10x\Source\ARM\startup_gd32f10x
_md.s
   Uses
      At line 283 in file Firmware\CMSIS\GD\GD32F10x\Source\ARM\startup_gd32f10
x_md.s
Comment: __heap_limit used once
4 symbols



ARM Macro Assembler    Page 1 Alphabetic symbol ordering
Relocatable symbols

RESET 00000000

Symbol: RESET
   Definitions
      At line 40 in file Firmware\CMSIS\GD\GD32F10x\Source\ARM\startup_gd32f10x
_md.s
   Uses
      None
Comment: RESET unused
__Vectors 00000000

Symbol: __Vectors
   Definitions
      At line 45 in file Firmware\CMSIS\GD\GD32F10x\Source\ARM\startup_gd32f10x
_md.s
   Uses
      At line 41 in file Firmware\CMSIS\GD\GD32F10x\Source\ARM\startup_gd32f10x
_md.s
      At line 115 in file Firmware\CMSIS\GD\GD32F10x\Source\ARM\startup_gd32f10
x_md.s

__Vectors_End 00000104

Symbol: __Vectors_End
   Definitions
      At line 113 in file Firmware\CMSIS\GD\GD32F10x\Source\ARM\startup_gd32f10
x_md.s
   Uses
      At line 42 in file Firmware\CMSIS\GD\GD32F10x\Source\ARM\startup_gd32f10x
_md.s
      At line 115 in file Firmware\CMSIS\GD\GD32F10x\Source\ARM\startup_gd32f10
x_md.s

3 symbols



ARM Macro Assembler    Page 1 Alphabetic symbol ordering
Relocatable symbols

.text 00000000

Symbol: .text
   Definitions
      At line 117 in file Firmware\CMSIS\GD\GD32F10x\Source\ARM\startup_gd32f10
x_md.s
   Uses
      None
Comment: .text unused
ADC0_1_IRQHandler 0000001A

Symbol: ADC0_1_IRQHandler
   Definitions
      At line 243 in file Firmware\CMSIS\GD\GD32F10x\Source\ARM\startup_gd32f10
x_md.s
   Uses
      At line 81 in file Firmware\CMSIS\GD\GD32F10x\Source\ARM\startup_gd32f10x
_md.s
      At line 196 in file Firmware\CMSIS\GD\GD32F10x\Source\ARM\startup_gd32f10
x_md.s

BusFault_Handler 0000000E

Symbol: BusFault_Handler
   Definitions
      At line 146 in file Firmware\CMSIS\GD\GD32F10x\Source\ARM\startup_gd32f10
x_md.s
   Uses
      At line 50 in file Firmware\CMSIS\GD\GD32F10x\Source\ARM\startup_gd32f10x
_md.s
      At line 147 in file Firmware\CMSIS\GD\GD32F10x\Source\ARM\startup_gd32f10
x_md.s

CAN0_EWMC_IRQHandler 0000001A

Symbol: CAN0_EWMC_IRQHandler
   Definitions
      At line 247 in file Firmware\CMSIS\GD\GD32F10x\Source\ARM\startup_gd32f10
x_md.s
   Uses
      At line 85 in file Firmware\CMSIS\GD\GD32F10x\Source\ARM\startup_gd32f10x
_md.s
      At line 200 in file Firmware\CMSIS\GD\GD32F10x\Source\ARM\startup_gd32f10
x_md.s

CAN0_RX1_IRQHandler 0000001A

Symbol: CAN0_RX1_IRQHandler
   Definitions
      At line 246 in file Firmware\CMSIS\GD\GD32F10x\Source\ARM\startup_gd32f10
x_md.s
   Uses
      At line 84 in file Firmware\CMSIS\GD\GD32F10x\Source\ARM\startup_gd32f10x
_md.s
      At line 199 in file Firmware\CMSIS\GD\GD32F10x\Source\ARM\startup_gd32f10
x_md.s

DMA0_Channel0_IRQHandler 0000001A




ARM Macro Assembler    Page 2 Alphabetic symbol ordering
Relocatable symbols

Symbol: DMA0_Channel0_IRQHandler
   Definitions
      At line 236 in file Firmware\CMSIS\GD\GD32F10x\Source\ARM\startup_gd32f10
x_md.s
   Uses
      At line 74 in file Firmware\CMSIS\GD\GD32F10x\Source\ARM\startup_gd32f10x
_md.s
      At line 189 in file Firmware\CMSIS\GD\GD32F10x\Source\ARM\startup_gd32f10
x_md.s

DMA0_Channel1_IRQHandler 0000001A

Symbol: DMA0_Channel1_IRQHandler
   Definitions
      At line 237 in file Firmware\CMSIS\GD\GD32F10x\Source\ARM\startup_gd32f10
x_md.s
   Uses
      At line 75 in file Firmware\CMSIS\GD\GD32F10x\Source\ARM\startup_gd32f10x
_md.s
      At line 190 in file Firmware\CMSIS\GD\GD32F10x\Source\ARM\startup_gd32f10
x_md.s

DMA0_Channel2_IRQHandler 0000001A

Symbol: DMA0_Channel2_IRQHandler
   Definitions
      At line 238 in file Firmware\CMSIS\GD\GD32F10x\Source\ARM\startup_gd32f10
x_md.s
   Uses
      At line 76 in file Firmware\CMSIS\GD\GD32F10x\Source\ARM\startup_gd32f10x
_md.s
      At line 191 in file Firmware\CMSIS\GD\GD32F10x\Source\ARM\startup_gd32f10
x_md.s

DMA0_Channel3_IRQHandler 0000001A

Symbol: DMA0_Channel3_IRQHandler
   Definitions
      At line 239 in file Firmware\CMSIS\GD\GD32F10x\Source\ARM\startup_gd32f10
x_md.s
   Uses
      At line 77 in file Firmware\CMSIS\GD\GD32F10x\Source\ARM\startup_gd32f10x
_md.s
      At line 192 in file Firmware\CMSIS\GD\GD32F10x\Source\ARM\startup_gd32f10
x_md.s

DMA0_Channel4_IRQHandler 0000001A

Symbol: DMA0_Channel4_IRQHandler
   Definitions
      At line 240 in file Firmware\CMSIS\GD\GD32F10x\Source\ARM\startup_gd32f10
x_md.s
   Uses
      At line 78 in file Firmware\CMSIS\GD\GD32F10x\Source\ARM\startup_gd32f10x
_md.s
      At line 193 in file Firmware\CMSIS\GD\GD32F10x\Source\ARM\startup_gd32f10
x_md.s

DMA0_Channel5_IRQHandler 0000001A



ARM Macro Assembler    Page 3 Alphabetic symbol ordering
Relocatable symbols


Symbol: DMA0_Channel5_IRQHandler
   Definitions
      At line 241 in file Firmware\CMSIS\GD\GD32F10x\Source\ARM\startup_gd32f10
x_md.s
   Uses
      At line 79 in file Firmware\CMSIS\GD\GD32F10x\Source\ARM\startup_gd32f10x
_md.s
      At line 194 in file Firmware\CMSIS\GD\GD32F10x\Source\ARM\startup_gd32f10
x_md.s

DMA0_Channel6_IRQHandler 0000001A

Symbol: DMA0_Channel6_IRQHandler
   Definitions
      At line 242 in file Firmware\CMSIS\GD\GD32F10x\Source\ARM\startup_gd32f10
x_md.s
   Uses
      At line 80 in file Firmware\CMSIS\GD\GD32F10x\Source\ARM\startup_gd32f10x
_md.s
      At line 195 in file Firmware\CMSIS\GD\GD32F10x\Source\ARM\startup_gd32f10
x_md.s

DebugMon_Handler 00000014

Symbol: DebugMon_Handler
   Definitions
      At line 161 in file Firmware\CMSIS\GD\GD32F10x\Source\ARM\startup_gd32f10
x_md.s
   Uses
      At line 57 in file Firmware\CMSIS\GD\GD32F10x\Source\ARM\startup_gd32f10x
_md.s
      At line 162 in file Firmware\CMSIS\GD\GD32F10x\Source\ARM\startup_gd32f10
x_md.s

Default_Handler 0000001A

Symbol: Default_Handler
   Definitions
      At line 176 in file Firmware\CMSIS\GD\GD32F10x\Source\ARM\startup_gd32f10
x_md.s
   Uses
      None
Comment: Default_Handler unused
EXMC_IRQHandler 0000001A

Symbol: EXMC_IRQHandler
   Definitions
      At line 268 in file Firmware\CMSIS\GD\GD32F10x\Source\ARM\startup_gd32f10
x_md.s
   Uses
      At line 111 in file Firmware\CMSIS\GD\GD32F10x\Source\ARM\startup_gd32f10
x_md.s
      At line 221 in file Firmware\CMSIS\GD\GD32F10x\Source\ARM\startup_gd32f10
x_md.s

EXTI0_IRQHandler 0000001A

Symbol: EXTI0_IRQHandler



ARM Macro Assembler    Page 4 Alphabetic symbol ordering
Relocatable symbols

   Definitions
      At line 231 in file Firmware\CMSIS\GD\GD32F10x\Source\ARM\startup_gd32f10
x_md.s
   Uses
      At line 69 in file Firmware\CMSIS\GD\GD32F10x\Source\ARM\startup_gd32f10x
_md.s
      At line 184 in file Firmware\CMSIS\GD\GD32F10x\Source\ARM\startup_gd32f10
x_md.s

EXTI10_15_IRQHandler 0000001A

Symbol: EXTI10_15_IRQHandler
   Definitions
      At line 265 in file Firmware\CMSIS\GD\GD32F10x\Source\ARM\startup_gd32f10
x_md.s
   Uses
      At line 103 in file Firmware\CMSIS\GD\GD32F10x\Source\ARM\startup_gd32f10
x_md.s
      At line 218 in file Firmware\CMSIS\GD\GD32F10x\Source\ARM\startup_gd32f10
x_md.s

EXTI1_IRQHandler 0000001A

Symbol: EXTI1_IRQHandler
   Definitions
      At line 232 in file Firmware\CMSIS\GD\GD32F10x\Source\ARM\startup_gd32f10
x_md.s
   Uses
      At line 70 in file Firmware\CMSIS\GD\GD32F10x\Source\ARM\startup_gd32f10x
_md.s
      At line 185 in file Firmware\CMSIS\GD\GD32F10x\Source\ARM\startup_gd32f10
x_md.s

EXTI2_IRQHandler 0000001A

Symbol: EXTI2_IRQHandler
   Definitions
      At line 233 in file Firmware\CMSIS\GD\GD32F10x\Source\ARM\startup_gd32f10
x_md.s
   Uses
      At line 71 in file Firmware\CMSIS\GD\GD32F10x\Source\ARM\startup_gd32f10x
_md.s
      At line 186 in file Firmware\CMSIS\GD\GD32F10x\Source\ARM\startup_gd32f10
x_md.s

EXTI3_IRQHandler 0000001A

Symbol: EXTI3_IRQHandler
   Definitions
      At line 234 in file Firmware\CMSIS\GD\GD32F10x\Source\ARM\startup_gd32f10
x_md.s
   Uses
      At line 72 in file Firmware\CMSIS\GD\GD32F10x\Source\ARM\startup_gd32f10x
_md.s
      At line 187 in file Firmware\CMSIS\GD\GD32F10x\Source\ARM\startup_gd32f10
x_md.s

EXTI4_IRQHandler 0000001A




ARM Macro Assembler    Page 5 Alphabetic symbol ordering
Relocatable symbols

Symbol: EXTI4_IRQHandler
   Definitions
      At line 235 in file Firmware\CMSIS\GD\GD32F10x\Source\ARM\startup_gd32f10
x_md.s
   Uses
      At line 73 in file Firmware\CMSIS\GD\GD32F10x\Source\ARM\startup_gd32f10x
_md.s
      At line 188 in file Firmware\CMSIS\GD\GD32F10x\Source\ARM\startup_gd32f10
x_md.s

EXTI5_9_IRQHandler 0000001A

Symbol: EXTI5_9_IRQHandler
   Definitions
      At line 248 in file Firmware\CMSIS\GD\GD32F10x\Source\ARM\startup_gd32f10
x_md.s
   Uses
      At line 86 in file Firmware\CMSIS\GD\GD32F10x\Source\ARM\startup_gd32f10x
_md.s
      At line 201 in file Firmware\CMSIS\GD\GD32F10x\Source\ARM\startup_gd32f10
x_md.s

FMC_IRQHandler 0000001A

Symbol: FMC_IRQHandler
   Definitions
      At line 229 in file Firmware\CMSIS\GD\GD32F10x\Source\ARM\startup_gd32f10
x_md.s
   Uses
      At line 67 in file Firmware\CMSIS\GD\GD32F10x\Source\ARM\startup_gd32f10x
_md.s
      At line 182 in file Firmware\CMSIS\GD\GD32F10x\Source\ARM\startup_gd32f10
x_md.s

HardFault_Handler 0000000A

Symbol: HardFault_Handler
   Definitions
      At line 136 in file Firmware\CMSIS\GD\GD32F10x\Source\ARM\startup_gd32f10
x_md.s
   Uses
      At line 48 in file Firmware\CMSIS\GD\GD32F10x\Source\ARM\startup_gd32f10x
_md.s
      At line 137 in file Firmware\CMSIS\GD\GD32F10x\Source\ARM\startup_gd32f10
x_md.s

I2C0_ER_IRQHandler 0000001A

Symbol: I2C0_ER_IRQHandler
   Definitions
      At line 257 in file Firmware\CMSIS\GD\GD32F10x\Source\ARM\startup_gd32f10
x_md.s
   Uses
      At line 95 in file Firmware\CMSIS\GD\GD32F10x\Source\ARM\startup_gd32f10x
_md.s
      At line 210 in file Firmware\CMSIS\GD\GD32F10x\Source\ARM\startup_gd32f10
x_md.s

I2C0_EV_IRQHandler 0000001A



ARM Macro Assembler    Page 6 Alphabetic symbol ordering
Relocatable symbols


Symbol: I2C0_EV_IRQHandler
   Definitions
      At line 256 in file Firmware\CMSIS\GD\GD32F10x\Source\ARM\startup_gd32f10
x_md.s
   Uses
      At line 94 in file Firmware\CMSIS\GD\GD32F10x\Source\ARM\startup_gd32f10x
_md.s
      At line 209 in file Firmware\CMSIS\GD\GD32F10x\Source\ARM\startup_gd32f10
x_md.s

I2C1_ER_IRQHandler 0000001A

Symbol: I2C1_ER_IRQHandler
   Definitions
      At line 259 in file Firmware\CMSIS\GD\GD32F10x\Source\ARM\startup_gd32f10
x_md.s
   Uses
      At line 97 in file Firmware\CMSIS\GD\GD32F10x\Source\ARM\startup_gd32f10x
_md.s
      At line 212 in file Firmware\CMSIS\GD\GD32F10x\Source\ARM\startup_gd32f10
x_md.s

I2C1_EV_IRQHandler 0000001A

Symbol: I2C1_EV_IRQHandler
   Definitions
      At line 258 in file Firmware\CMSIS\GD\GD32F10x\Source\ARM\startup_gd32f10
x_md.s
   Uses
      At line 96 in file Firmware\CMSIS\GD\GD32F10x\Source\ARM\startup_gd32f10x
_md.s
      At line 211 in file Firmware\CMSIS\GD\GD32F10x\Source\ARM\startup_gd32f10
x_md.s

LVD_IRQHandler 0000001A

Symbol: LVD_IRQHandler
   Definitions
      At line 226 in file Firmware\CMSIS\GD\GD32F10x\Source\ARM\startup_gd32f10
x_md.s
   Uses
      At line 64 in file Firmware\CMSIS\GD\GD32F10x\Source\ARM\startup_gd32f10x
_md.s
      At line 179 in file Firmware\CMSIS\GD\GD32F10x\Source\ARM\startup_gd32f10
x_md.s

MemManage_Handler 0000000C

Symbol: MemManage_Handler
   Definitions
      At line 141 in file Firmware\CMSIS\GD\GD32F10x\Source\ARM\startup_gd32f10
x_md.s
   Uses
      At line 49 in file Firmware\CMSIS\GD\GD32F10x\Source\ARM\startup_gd32f10x
_md.s
      At line 142 in file Firmware\CMSIS\GD\GD32F10x\Source\ARM\startup_gd32f10
x_md.s




ARM Macro Assembler    Page 7 Alphabetic symbol ordering
Relocatable symbols

NMI_Handler 00000008

Symbol: NMI_Handler
   Definitions
      At line 131 in file Firmware\CMSIS\GD\GD32F10x\Source\ARM\startup_gd32f10
x_md.s
   Uses
      At line 47 in file Firmware\CMSIS\GD\GD32F10x\Source\ARM\startup_gd32f10x
_md.s
      At line 132 in file Firmware\CMSIS\GD\GD32F10x\Source\ARM\startup_gd32f10
x_md.s

PendSV_Handler 00000016

Symbol: PendSV_Handler
   Definitions
      At line 166 in file Firmware\CMSIS\GD\GD32F10x\Source\ARM\startup_gd32f10
x_md.s
   Uses
      At line 59 in file Firmware\CMSIS\GD\GD32F10x\Source\ARM\startup_gd32f10x
_md.s
      At line 167 in file Firmware\CMSIS\GD\GD32F10x\Source\ARM\startup_gd32f10
x_md.s

RCU_IRQHandler 0000001A

Symbol: RCU_IRQHandler
   Definitions
      At line 230 in file Firmware\CMSIS\GD\GD32F10x\Source\ARM\startup_gd32f10
x_md.s
   Uses
      At line 68 in file Firmware\CMSIS\GD\GD32F10x\Source\ARM\startup_gd32f10x
_md.s
      At line 183 in file Firmware\CMSIS\GD\GD32F10x\Source\ARM\startup_gd32f10
x_md.s

RTC_Alarm_IRQHandler 0000001A

Symbol: RTC_Alarm_IRQHandler
   Definitions
      At line 266 in file Firmware\CMSIS\GD\GD32F10x\Source\ARM\startup_gd32f10
x_md.s
   Uses
      At line 104 in file Firmware\CMSIS\GD\GD32F10x\Source\ARM\startup_gd32f10
x_md.s
      At line 219 in file Firmware\CMSIS\GD\GD32F10x\Source\ARM\startup_gd32f10
x_md.s

RTC_IRQHandler 0000001A

Symbol: RTC_IRQHandler
   Definitions
      At line 228 in file Firmware\CMSIS\GD\GD32F10x\Source\ARM\startup_gd32f10
x_md.s
   Uses
      At line 66 in file Firmware\CMSIS\GD\GD32F10x\Source\ARM\startup_gd32f10x
_md.s
      At line 181 in file Firmware\CMSIS\GD\GD32F10x\Source\ARM\startup_gd32f10
x_md.s



ARM Macro Assembler    Page 8 Alphabetic symbol ordering
Relocatable symbols


Reset_Handler 00000000

Symbol: Reset_Handler
   Definitions
      At line 120 in file Firmware\CMSIS\GD\GD32F10x\Source\ARM\startup_gd32f10
x_md.s
   Uses
      At line 46 in file Firmware\CMSIS\GD\GD32F10x\Source\ARM\startup_gd32f10x
_md.s
      At line 121 in file Firmware\CMSIS\GD\GD32F10x\Source\ARM\startup_gd32f10
x_md.s

SPI0_IRQHandler 0000001A

Symbol: SPI0_IRQHandler
   Definitions
      At line 260 in file Firmware\CMSIS\GD\GD32F10x\Source\ARM\startup_gd32f10
x_md.s
   Uses
      At line 98 in file Firmware\CMSIS\GD\GD32F10x\Source\ARM\startup_gd32f10x
_md.s
      At line 213 in file Firmware\CMSIS\GD\GD32F10x\Source\ARM\startup_gd32f10
x_md.s

SPI1_IRQHandler 0000001A

Symbol: SPI1_IRQHandler
   Definitions
      At line 261 in file Firmware\CMSIS\GD\GD32F10x\Source\ARM\startup_gd32f10
x_md.s
   Uses
      At line 99 in file Firmware\CMSIS\GD\GD32F10x\Source\ARM\startup_gd32f10x
_md.s
      At line 214 in file Firmware\CMSIS\GD\GD32F10x\Source\ARM\startup_gd32f10
x_md.s

SVC_Handler 00000012

Symbol: SVC_Handler
   Definitions
      At line 156 in file Firmware\CMSIS\GD\GD32F10x\Source\ARM\startup_gd32f10
x_md.s
   Uses
      At line 56 in file Firmware\CMSIS\GD\GD32F10x\Source\ARM\startup_gd32f10x
_md.s
      At line 157 in file Firmware\CMSIS\GD\GD32F10x\Source\ARM\startup_gd32f10
x_md.s

SysTick_Handler 00000018

Symbol: SysTick_Handler
   Definitions
      At line 171 in file Firmware\CMSIS\GD\GD32F10x\Source\ARM\startup_gd32f10
x_md.s
   Uses
      At line 60 in file Firmware\CMSIS\GD\GD32F10x\Source\ARM\startup_gd32f10x
_md.s
      At line 172 in file Firmware\CMSIS\GD\GD32F10x\Source\ARM\startup_gd32f10



ARM Macro Assembler    Page 9 Alphabetic symbol ordering
Relocatable symbols

x_md.s

TAMPER_IRQHandler 0000001A

Symbol: TAMPER_IRQHandler
   Definitions
      At line 227 in file Firmware\CMSIS\GD\GD32F10x\Source\ARM\startup_gd32f10
x_md.s
   Uses
      At line 65 in file Firmware\CMSIS\GD\GD32F10x\Source\ARM\startup_gd32f10x
_md.s
      At line 180 in file Firmware\CMSIS\GD\GD32F10x\Source\ARM\startup_gd32f10
x_md.s

TIMER0_BRK_IRQHandler 0000001A

Symbol: TIMER0_BRK_IRQHandler
   Definitions
      At line 249 in file Firmware\CMSIS\GD\GD32F10x\Source\ARM\startup_gd32f10
x_md.s
   Uses
      At line 87 in file Firmware\CMSIS\GD\GD32F10x\Source\ARM\startup_gd32f10x
_md.s
      At line 202 in file Firmware\CMSIS\GD\GD32F10x\Source\ARM\startup_gd32f10
x_md.s

TIMER0_Channel_IRQHandler 0000001A

Symbol: TIMER0_Channel_IRQHandler
   Definitions
      At line 252 in file Firmware\CMSIS\GD\GD32F10x\Source\ARM\startup_gd32f10
x_md.s
   Uses
      At line 90 in file Firmware\CMSIS\GD\GD32F10x\Source\ARM\startup_gd32f10x
_md.s
      At line 205 in file Firmware\CMSIS\GD\GD32F10x\Source\ARM\startup_gd32f10
x_md.s

TIMER0_TRG_CMT_IRQHandler 0000001A

Symbol: TIMER0_TRG_CMT_IRQHandler
   Definitions
      At line 251 in file Firmware\CMSIS\GD\GD32F10x\Source\ARM\startup_gd32f10
x_md.s
   Uses
      At line 89 in file Firmware\CMSIS\GD\GD32F10x\Source\ARM\startup_gd32f10x
_md.s
      At line 204 in file Firmware\CMSIS\GD\GD32F10x\Source\ARM\startup_gd32f10
x_md.s

TIMER0_UP_IRQHandler 0000001A

Symbol: TIMER0_UP_IRQHandler
   Definitions
      At line 250 in file Firmware\CMSIS\GD\GD32F10x\Source\ARM\startup_gd32f10
x_md.s
   Uses
      At line 88 in file Firmware\CMSIS\GD\GD32F10x\Source\ARM\startup_gd32f10x
_md.s



ARM Macro Assembler    Page 10 Alphabetic symbol ordering
Relocatable symbols

      At line 203 in file Firmware\CMSIS\GD\GD32F10x\Source\ARM\startup_gd32f10
x_md.s

TIMER1_IRQHandler 0000001A

Symbol: TIMER1_IRQHandler
   Definitions
      At line 253 in file Firmware\CMSIS\GD\GD32F10x\Source\ARM\startup_gd32f10
x_md.s
   Uses
      At line 91 in file Firmware\CMSIS\GD\GD32F10x\Source\ARM\startup_gd32f10x
_md.s
      At line 206 in file Firmware\CMSIS\GD\GD32F10x\Source\ARM\startup_gd32f10
x_md.s

TIMER2_IRQHandler 0000001A

Symbol: TIMER2_IRQHandler
   Definitions
      At line 254 in file Firmware\CMSIS\GD\GD32F10x\Source\ARM\startup_gd32f10
x_md.s
   Uses
      At line 92 in file Firmware\CMSIS\GD\GD32F10x\Source\ARM\startup_gd32f10x
_md.s
      At line 207 in file Firmware\CMSIS\GD\GD32F10x\Source\ARM\startup_gd32f10
x_md.s

TIMER3_IRQHandler 0000001A

Symbol: TIMER3_IRQHandler
   Definitions
      At line 255 in file Firmware\CMSIS\GD\GD32F10x\Source\ARM\startup_gd32f10
x_md.s
   Uses
      At line 93 in file Firmware\CMSIS\GD\GD32F10x\Source\ARM\startup_gd32f10x
_md.s
      At line 208 in file Firmware\CMSIS\GD\GD32F10x\Source\ARM\startup_gd32f10
x_md.s

USART0_IRQHandler 0000001A

Symbol: USART0_IRQHandler
   Definitions
      At line 262 in file Firmware\CMSIS\GD\GD32F10x\Source\ARM\startup_gd32f10
x_md.s
   Uses
      At line 100 in file Firmware\CMSIS\GD\GD32F10x\Source\ARM\startup_gd32f10
x_md.s
      At line 215 in file Firmware\CMSIS\GD\GD32F10x\Source\ARM\startup_gd32f10
x_md.s

USART1_IRQHandler 0000001A

Symbol: USART1_IRQHandler
   Definitions
      At line 263 in file Firmware\CMSIS\GD\GD32F10x\Source\ARM\startup_gd32f10
x_md.s
   Uses
      At line 101 in file Firmware\CMSIS\GD\GD32F10x\Source\ARM\startup_gd32f10



ARM Macro Assembler    Page 11 Alphabetic symbol ordering
Relocatable symbols

x_md.s
      At line 216 in file Firmware\CMSIS\GD\GD32F10x\Source\ARM\startup_gd32f10
x_md.s

USART2_IRQHandler 0000001A

Symbol: USART2_IRQHandler
   Definitions
      At line 264 in file Firmware\CMSIS\GD\GD32F10x\Source\ARM\startup_gd32f10
x_md.s
   Uses
      At line 102 in file Firmware\CMSIS\GD\GD32F10x\Source\ARM\startup_gd32f10
x_md.s
      At line 217 in file Firmware\CMSIS\GD\GD32F10x\Source\ARM\startup_gd32f10
x_md.s

USBD_HP_CAN0_TX_IRQHandler 0000001A

Symbol: USBD_HP_CAN0_TX_IRQHandler
   Definitions
      At line 244 in file Firmware\CMSIS\GD\GD32F10x\Source\ARM\startup_gd32f10
x_md.s
   Uses
      At line 82 in file Firmware\CMSIS\GD\GD32F10x\Source\ARM\startup_gd32f10x
_md.s
      At line 197 in file Firmware\CMSIS\GD\GD32F10x\Source\ARM\startup_gd32f10
x_md.s

USBD_LP_CAN0_RX0_IRQHandler 0000001A

Symbol: USBD_LP_CAN0_RX0_IRQHandler
   Definitions
      At line 245 in file Firmware\CMSIS\GD\GD32F10x\Source\ARM\startup_gd32f10
x_md.s
   Uses
      At line 83 in file Firmware\CMSIS\GD\GD32F10x\Source\ARM\startup_gd32f10x
_md.s
      At line 198 in file Firmware\CMSIS\GD\GD32F10x\Source\ARM\startup_gd32f10
x_md.s

USBD_WKUP_IRQHandler 0000001A

Symbol: USBD_WKUP_IRQHandler
   Definitions
      At line 267 in file Firmware\CMSIS\GD\GD32F10x\Source\ARM\startup_gd32f10
x_md.s
   Uses
      At line 105 in file Firmware\CMSIS\GD\GD32F10x\Source\ARM\startup_gd32f10
x_md.s
      At line 220 in file Firmware\CMSIS\GD\GD32F10x\Source\ARM\startup_gd32f10
x_md.s

UsageFault_Handler 00000010

Symbol: UsageFault_Handler
   Definitions
      At line 151 in file Firmware\CMSIS\GD\GD32F10x\Source\ARM\startup_gd32f10
x_md.s
   Uses



ARM Macro Assembler    Page 12 Alphabetic symbol ordering
Relocatable symbols

      At line 51 in file Firmware\CMSIS\GD\GD32F10x\Source\ARM\startup_gd32f10x
_md.s
      At line 152 in file Firmware\CMSIS\GD\GD32F10x\Source\ARM\startup_gd32f10
x_md.s

WWDGT_IRQHandler 0000001A

Symbol: WWDGT_IRQHandler
   Definitions
      At line 225 in file Firmware\CMSIS\GD\GD32F10x\Source\ARM\startup_gd32f10
x_md.s
   Uses
      At line 63 in file Firmware\CMSIS\GD\GD32F10x\Source\ARM\startup_gd32f10x
_md.s
      At line 178 in file Firmware\CMSIS\GD\GD32F10x\Source\ARM\startup_gd32f10
x_md.s

56 symbols



ARM Macro Assembler    Page 1 Alphabetic symbol ordering
Absolute symbols

Heap_Size 00000400

Symbol: Heap_Size
   Definitions
      At line 28 in file Firmware\CMSIS\GD\GD32F10x\Source\ARM\startup_gd32f10x
_md.s
   Uses
      At line 32 in file Firmware\CMSIS\GD\GD32F10x\Source\ARM\startup_gd32f10x
_md.s
Comment: Heap_Size used once
Stack_Size 00000400

Symbol: Stack_Size
   Definitions
      At line 17 in file Firmware\CMSIS\GD\GD32F10x\Source\ARM\startup_gd32f10x
_md.s
   Uses
      At line 20 in file Firmware\CMSIS\GD\GD32F10x\Source\ARM\startup_gd32f10x
_md.s
Comment: Stack_Size used once
__Vectors_Size 00000104

Symbol: __Vectors_Size
   Definitions
      At line 115 in file Firmware\CMSIS\GD\GD32F10x\Source\ARM\startup_gd32f10
x_md.s
   Uses
      At line 43 in file Firmware\CMSIS\GD\GD32F10x\Source\ARM\startup_gd32f10x
_md.s
Comment: __Vectors_Size used once
3 symbols



ARM Macro Assembler    Page 1 Alphabetic symbol ordering
External symbols

SystemInit 00000000

Symbol: SystemInit
   Definitions
      At line 123 in file Firmware\CMSIS\GD\GD32F10x\Source\ARM\startup_gd32f10
x_md.s
   Uses
      At line 124 in file Firmware\CMSIS\GD\GD32F10x\Source\ARM\startup_gd32f10
x_md.s
Comment: SystemInit used once
__main 00000000

Symbol: __main
   Definitions
      At line 122 in file Firmware\CMSIS\GD\GD32F10x\Source\ARM\startup_gd32f10
x_md.s
   Uses
      At line 126 in file Firmware\CMSIS\GD\GD32F10x\Source\ARM\startup_gd32f10
x_md.s
Comment: __main used once
2 symbols
408 symbols in table
